:020000040800F2
:10000000C00C0020C1010008C5010008C70100089C
:10001000C9010008CB010008CD0100080000000064
:10002000000000000000000000000000CF010008F8
:10003000D101000800000000D3010008D50100082C
:10004000D7010008D7010008D7010008D701000830
:10005000D7010008D7010008D7010008D701000820
:10006000D7010008D7010008D7010008D701000810
:10007000D7010008D7010008D7010008D701000800
:10008000D7010008D7010008D7010008D7010008F0
:10009000D7010008D7010008D7010008372700085A
:1000A000D7010008D7010008D7010008D7010008D0
:1000B000451500081D1100082F150008D70100087C
:1000C000D7010008D7010008D7010008D7010008B0
:1000D000D7010008D7010008D7010008CD1B000890
:1000E000D7010008D7010008D701000800F002F886
:1000F00000F051F80AA090E8000C82448344AAF171
:100100000107DA4501D100F046F8AFF2090EBAE86E
:100110000F0013F0010F18BFFB1A43F0010318473B
:10012000709D0000909D00000A4410F8014B14F0EF
:100130000F0508BF10F8015B240908BF10F8014B38
:100140006D1E05D010F8013B6D1E01F8013BF9D181
:10015000641E03D0641E01F8015BFBD19142E4D31D
:10016000704700000023002400250026103A28BF15
:1001700078C1FBD8520728BF30C148BF0B60704719
:10018000642906F00183002070471FB508F053F979
:100190001FBD10B510BD06F0CBFC1146FFF7F5FFF3
:1001A00000F02AF806F0E9FC03B4FFF7F2FF03BC05
:1001B00000F034FA30BF72B662B680F30888704738
:1001C00008480047FEE7FEE7FEE7FEE7FEE7FEE73A
:1001D000FEE7FEE7FEE7FEE703480449044A054B55
:1001E00070470000ED000008C0060020C00C002091
:1001F000C0080020C0080020092000F0ADF9482008
:1002000000F04CF8022000F094F9012000F091F980
:1002100000F098FA00F0D6FA00F014FD4FF4FA312D
:10022000482000F01EFA4FF41651242001F052FC31
:10023000002141F61F4000F0FAFF01F06DF801F0D7
:10024000D0F800F0D9FD01F099F905F008FD05F0AE
:100250001AFD47214FF6FF7000F0D4FE01F002FEB8
:1002600014E00B48007820B906F06BF805F052FF57
:1002700001E006F0AFF801200649087000200649A9
:10028000087000BF034800780028FBD1E9E70000B0
:100290000300002039000020380000204FF0E0214A
:1002A000096921F004014FF0E0221161C21700EB4F
:1002B0005272D2101F4B1A70194609784FF47A7295
:1002C00051431D4A1180704701461A4A12784A4329
:1002D0004FF0E0235A6100229A6101221A6100BFA7
:1002E0004FF0E022106910F0010F02D010F4803FAF
:1002F000F6D000224FF0E0231A619A617047014660
:100300000D4A12884A434FF0E0235A6100229A6155
:1003100001221A6100BF4FF0E022106910F0010FB6
:1003200002D010F4803FF6D000224FF0E0231A6193
:100330009A6170474000002042000020A74A0A400E
:100340000243A74B1A6070470146072323EA0102C4
:100350001202A44B18684FF6FF0300EA0300A24BF9
:1003600040EA030040EA02004FF0E023C3F80C0D1E
:1003700070472DE9F0410746884614461D46284639
:10038000FFF7E2FFC5F1040007FA00F60F2028414D
:1003900000EA0800064306F00F06E21704EBD262FB
:1003A00052114FF0E02303EB8202D2F800212146E4
:1003B000E31704EBD3635B11A4EB431C012303FAA3
:1003C0000CF31A432046E31704EBD3635B114FF0A1
:1003D000E02C0CEB8303C3F800218448005D40EA65
:1003E000061082490855BDE8F08170B504460B46F9
:1003F000CE1701EB9676B010CE1701EB9676B610BD
:10040000A1EB8606B606350E794B9B6943F00103D6
:10041000774EB3614FEAB63353F820300F26AE4023
:10042000B343744E46F82030334653F8203004FA74
:1004300005F633436F4E46F820306F4B1E684FF081
:10044000010303FA01F346EA03066C4BC3F80064A8
:1004500012F0010F0AD06A4B1B684FF0010606FA32
:1004600001F643EA0603654EC6F80C3412F0020F9B
:100470000AD0644B1B684FF0010606FA01F643EA06
:1004800006035E4EC6F8083470BD00B5002058491A
:100490000861C8601420486100208861C86108466E
:1004A000006840F00100086008464068564908406E
:1004B0004F49486008460068544908404C49086064
:1004C0000846006820F4802008600846406820F450
:1004D000FE0048600020886000214FF00060FFF7B8
:1004E0002DFF00BD10B54A48006840F004004FF0F1
:1004F000E021C1F8100D3E48C06940F080503C49F1
:10050000C8614448406840F48070424948600846E9
:10051000006840F0040008600846006840F00200EF
:100520000860FFF747FE10BD2F48001D2D490860E9
:100530007047014649062E4A926942F001022C4B4F
:100540009A612E4A526822F0E0622C4B5A601A4699
:1005500052680A435A60704730B504460025FFF7D9
:1005600094FF2348006840F480302149086000BFB0
:100570001F480068400CFBD04FF480601C49486065
:10058000A01EC4B20846406840EA8440486008465D
:10059000406840F4803048601F48006840F03200F6
:1005A0001D4908601248006840F0807010490860DA
:1005B00000BF0F480068400EFBD00D48406840F077
:1005C00002000B49486005E009484068C0F3870510
:1005D00005F00305022DF7D130BD000080FFFF1F9D
:1005E00008ED00E00CED00E00000FA0500E400E09A
:1005F00000100240080001400004014000000140DA
:100600000C040140080401400000FFF8FFFFF6FE63
:1006100010ED00E00070004000200240014600BFE5
:1006200070473D4A12784AB900BF3C4A128812F01E
:10063000400FFAD0C2B23A4B1A8008E000BF394AE4
:10064000128812F0400FFAD0C2B2374B1A807047AE
:100650003549088000BF3349098811F0400FFAD0AE
:1006600070472DE9F05F05460E46300107F0D4FDD6
:1006700081462E4905FB01F007F0CEFD8246494632
:1006800007F080FC0746384607F08EFD84B220460E
:1006900007F0C2FD8346394607F00AFF82464FF055
:1006A000834107F001FE814607F07EFD804624016C
:1006B00004EB080084B21E48806940F004001C4925
:1006C00088610846806940F4804088611948006864
:1006D00020F47F601849C1F804080846D0F80408DF
:1006E00040F40B60C1F804081148C06840F4804031
:1006F0000F49C8600846C06820F48040C8600F48B1
:10070000A0F808480E48008842F20C0140EA0100B7
:100710000B490880BDE8F09F03000020004800401E
:1007200004480040003801400438014040420F00B6
:100730000010024004080140000001400030014068
:100740000C3801401948806940F00400174988615D
:100750001748006820F470201649C1F804080846BC
:10076000D0F8040840F44030C1F804080846D0F836
:100770000C0840F48050C1F80C08704718B90021EB
:100780000D4A116011E00D490968491C0B4A1160BE
:1007900081420AD1084909686FEA0101084AC2F892
:1007A000B0114FF00001054A11607047001002407F
:1007B0000408014000000140B0012142480000202F
:1007C000000021425748806940F004005549886183
:1007D0005548006820F070405449C1F804080846A4
:1007E000D0F8040840F00040C1F804080846D0F8EA
:1007F0000C0840F40040C1F80C08704701464C4812
:10080000006828B94B480088401C4A4A108002E022
:100810000020484A10804648006828B946480078B9
:1008200010B90120444A107044480078B0B94248D9
:100830000078012807D142480078401C404A1070D7
:1008400001203E4A10703E480078022806D1002060
:100850003B4A10703B4A10800220704734480068C1
:10086000012804D10020344A1070344A10703448F2
:10087000007801281CD133480088401C314A108080
:100880001046008888420ADD2A480088884206DA35
:1008900000202B4A10702B4A10800120DDE72548EC
:1008A0000088884204DD0020254A1070254A108007
:1008B0000020D2E72448007838B11D48006820B9EC
:1008C000002021490870012070471948006801285C
:1008D00001D11D4908700020F6E71C48008840B986
:1008E0001348006828B91A480088401C1849088035
:1008F00002E000201649088015480088C82807DD56
:100900000120124908800020114908800120704709
:100910000E480088012802D100200C4908800020E0
:10092000F5E700000010024004080140000001400B
:100930003C012142520000204C0000204D000020CC
:100940004E000020500000205400002058000020DD
:100950005600002010B50A461AB10123FF4C23604F
:1009600002E00023FD4C2360002117E00023FC4C33
:10097000236010F0800F04D00123A4F1040423604D
:1009800002E00023F74C23600123F54C23604FEA7B
:1009900040634FEA136001F10103D9B20829E5DB96
:1009A0000123EE4C236010BD30B500241CE004F19F
:1009B000B001C8B20021FFF7CDFF00210846FFF7C4
:1009C000C9FF00211020FFF7C5FF002508E0E64918
:1009D00001EBC501085D0121FFF7BCFF681CC5B232
:1009E000802DF4DB601CC4B2082CE0DB30BD00B508
:1009F00000218D20FFF7AEFF00211420FFF7AAFF92
:100A00000021AF20FFF7A6FF00BD00B500218D201B
:100A1000FFF7A0FF00211020FFF79CFF0021AE2070
:100A2000FFF798FF00BD30B500240CE0002506E07C
:100A30000020CD4901EBC5010855681CC5B2802DC9
:100A4000F6DB601CC4B2082CF0DBFFF7ADFF30BD55
:100A5000F0B5144600267F2801DC3F2900DDF0BDFB
:100A60000B46CF1701EB5777FF10C7F10707FAB214
:100A7000CF1701EB5777FF10A1EBC707FDB2C5F108
:100A800007070123BB40DEB24CB1B74B03EBC003F9
:100A90009B5C3343B44F07EBC007BB5408E0B24B39
:100AA00003EBC0039B5CB343AF4F07EBC007BB54E2
:100AB00000BFD4E72DE9FF4F80460C4615461E4681
:100AC000A346A5F12000C5B200273EE00C2E07D1B9
:100AD00005EB4500A54901EB800010F8079004E004
:100AE000A34800EB051010F807904FF0000A26E02D
:100AF00019F0800F05D0214640460D9AFFF7A8FF58
:100B000009E00D9808B9012000E00020C2B221469A
:100B10004046FFF79DFF4FEA49604FEA1069601CAD
:100B2000C4B2A4EB0B00B04205D15C4608F1010051
:100B300000F0FF0806E00AF1010000F0FF0ABAF138
:100B4000080FD5DB00BF781CC7B2B742BEDBBDE8DB
:100B5000FF8F10B50246012000E050430B00A1F1C9
:100B60000104E1B2F9D110BD2DE9FF4F81B0074674
:100B700091461E460E9D4FF0000A00243BE0301BBC
:100B8000401EC1B20A20FFF7E4FFB9FBF0F00A21D2
:100B9000B0FBF1F201FB120000F0FF08BAF1000F08
:100BA00016D1701EA04213DDB8F1000F0ED1012343
:100BB000AB4605EBD571491001FB0471C8B2009337
:100BC0002B4620220299FFF775FF12E04FF0010A31
:100BD0000123AB4605EBD571491001FB0471C8B286
:100BE00000932B4608F13001CAB20299FFF762FF69
:100BF00000BF601CC4B2B442C1DB05B0BDE8F08FD9
:100C000078B505460E46144618E07A2D03DD00251A
:100C100006F11000C6B23A2E04DD00200546064655
:100C2000FFF701FF0123009322780C233146284669
:100C3000FFF740FF05F10800C5B2641C20780028CA
:100C4000E3D178BD10B54B48806940F008004949B0
:100C500088614948006820F470204849C1F8000CB8
:100C60000846D0F8000C40F40030C1F8000C4148B0
:100C7000806940F010003F4988610846806940F073
:100C8000010088613E484068C0F313003C49486059
:100C9000084640683B4940EA0100394948603A4803
:100CA000006840F48070384908603248006A20F0DB
:100CB0000100304908623548B0F8300C20F00100DE
:100CC0003249A1F8300C3048006820F480702E4979
:100CD00008604FF000002E49C1F8B4014FF06400E5
:100CE000FFF70DFB01202A49C1F8B4010021AE2015
:100CF000FFF730FE0021D520FFF72CFE0021502009
:100D0000FFF728FE0021A820FFF724FE00213F2046
:100D1000FFF720FE0021D320FFF71CFE002108462C
:100D2000FFF718FE00214020FFF714FE00218D2060
:100D3000FFF710FE00211420FFF70CFE00212020F9
:100D4000FFF708FE00210220FFF704FE0021A1208A
:100D5000FFF700FE0021C0201CE00000908121422E
:100D6000BC012242B801224280010020A286000874
:100D7000168B000800100240000C014000000140EA
:100D80000010014000002022007000400060004080
:100D900000002242FFF7DEFD0021DA20FFF7DAFD36
:100DA00000211220FFF7D6FD00218120FFF7D2FDA0
:100DB0000021EF20FFF7CEFD0021D920FFF7CAFD6B
:100DC0000021F120FFF7C6FD0021DB20FFF7C2FD67
:100DD00000213020FFF7BEFD0021A420FFF7BAFD5F
:100DE0000021A620FFF7B6FD0021AF20FFF7B2FDDE
:100DF000FFF719FE10BD00007348806940F0040041
:100E0000714988617148006820F470207049C1F808
:100E100000086D48806940F400706B49886108469D
:100E2000C06840F40070C8600846C06820F40070D4
:100E3000C8600846406820F4404048600846406862
:100E400040F40040486063480068634900EA0100DC
:100E50006249C1F804045F480068C1F80404084608
:100E6000D0F8040420F48070C1F804040846D0F8D7
:100E7000080420F00200C1F808040846D0F808046D
:100E800020F46020C1F808040846D0F8080440F4B3
:100E90006020C1F808040846D0F8080440F4801027
:100EA000C1F808040846D0F8080420F40060C1F82E
:100EB00008040846D0F82C0420F47000C1F82C0473
:100EC0000846D0F82C044FF00000C1F82C04084666
:100ED000D0F8100420F47020C1F810040846D0F8AF
:100EE000100440F4E040C1F810040846D0F80804AB
:100EF00040F00100C1F808040846D0F8080440F0AA
:100F00000800C1F8080400BF3548006810F0080F59
:100F1000FAD13348006840F004003049C1F80804B1
:100F200000BF2F48006810F0040FFAD17047014647
:100F30002C48006820F01F00284AC2F834041046EC
:100F4000D0F8340440EA0100C2F834041046D0F866
:100F5000080440F48000C2F8080400BF224800687A
:100F600010F0020FFAD02148006880B270472DE9D6
:100F7000F04F87B00420FFF7DAFF019006F03EFC47
:100F800080464FF066321A4B06F088FC0022194B5F
:100F9000CDE9020106F082FC0022174BCDE90401E5
:100FA00006F07CFC06460022144B06F089FA044643
:100FB0000022134B06F084FA824606F0D9FB069015
:100FC000069807B0BDE8F08F00100240000801400D
:100FD0000000014004240140FFFFF0000020014018
:100FE0000824014034240140002401404C240140E5
:100FF00066660A4000002740000059400000F83FA4
:101000000000B04070B504460D467148C06940F01C
:1010100002006F49C8610846806940F00800886195
:101020006C48006820F0FF006B49C1F8000C0846CE
:10103000D0F8000C40F02800C1F8000C4FF08040C0
:10104000A0F82C44A0F82854B0F81C0440F001008B
:101050004FF08041A1F81C0460480088A1F81C04EE
:101060005E480088A1F81C045D480088A1F82004AF
:101070000846B0F8200440F48070A1F82004084627
:10108000B0F80C0440F00800A1F80C040846B0F8D1
:101090000C0440F00100A1F80C040846B0F800046C
:1010A00040F00100A1F800044FF001034FF01D02D1
:1010B0004FF003011846FFF75CF970BD10B5012031
:1010C000484908604FF00F00FFF7FEF8002046493E
:1010D000C1F884014548008810F0800F1DD04348B6
:1010E000008800F03F00424908600846006800049C
:1010F0000860084600683F49098808443C49086080
:1011000008460068AA2148434FF47A71B0FBF1F019
:101110003749086000203549088010BD36490888E5
:101120003249098811F0800F4ED110F0010F1AD00A
:101130002E49098811F0400F15D02C49098801F07B
:101140003F013F290AD12949098841F08001274AF6
:1011500011804FF6FF71274A118004E02349098866
:10116000491C224A118010F0080F2DD01F49098810
:1011700011F0400F12D01D49098841F080011B4A2F
:1011800011801E4909881B4A11804FF08041B1F837
:10119000201421F40071124A118015E00021134A35
:1011A0001180144A11801149098841F040010F4A09
:1011B00011800021124A11804FF08041B1F82014B3
:1011C00041F40071064A118000210B4A11807047DA
:1011D00000100240000C0140000001401C040040CF
:1011E0002004004084812142008021425A000020D6
:1011F000340000205C000020100400403C0400404B
:10120000240400403C48806940F008003A49886165
:101210003A48006880B23A49C1F8040C374800687F
:10122000384940EA01003649C1F8040C704700B55E
:1012300002460B46FFF7E6FF2F48806940F4006046
:101240002D4988610846806940F0040088612E4875
:1012500000684FF20F0120EA01002949C1F8040893
:10126000294800684BF20B0140EA01002449C1F80B
:1012700004082648A0F82C2CA0F8283CB0F81C0C38
:1012800040F4C0402149A1F81C0C0846B0F8180CE5
:1012900040F06000A1F8180C0846B0F81C0C40F4AF
:1012A0000060A1F81C0C0846B0F8180C40F00800CB
:1012B000A1F8180C0846B0F8200C40F48050A1F8B2
:1012C000200C0846B0F8200C40F00100A1F8200CDA
:1012D0000846B0F8440C40F400400D4908804FF433
:1012E00000400A49A1F8000C0846B0F8000C40F094
:1012F00001000849088000BD00100240040C0140B4
:1013000000000140000022220408014000200140AA
:10131000442C0140002C014010B59048C06940F0B9
:1013200001008E49C8610846806940F00400886168
:101330008B48006820F0FF008A49C1F80008084681
:10134000D0F8000840F04400C1F800084FF0804099
:10135000808940F001004FF08041888108468089F3
:1013600040F0400088814FF001034FF01C024FF025
:1013700003011846FEF7FDFF00204FF0804108856D
:101380004FF6FF7088850846008820F4407008807A
:101390000846008820F0600008800846008B40F076
:1013A000010008830846008B40F4807008830846DB
:1013B000008C20F0020008840846008C20F02000F9
:1013C00008840846008B40F03000088308460089F6
:1013D00040F0030008810846008840F001000880C2
:1013E00010BD10B55D48C06940F004005B49C8619C
:1013F0000846806940F0080088615B48006820F07A
:101400007F405849C1F8000C0846D0F8000C40F065
:101410008840C1F8000C4FF08040B0F80C0840F054
:1014200001004FF08041A1F80C080846B0F80C0804
:1014300040F04000A1F80C084FF001034FF01E02ED
:101440004FF003011846FEF794FF0020474908803B
:101450004FF6FF704FF08041A1F82C080846B0F815
:10146000000820F44070A1F800080846B0F8000811
:1014700020F06000A1F800080846B0F8180840F015
:101480000100A1F818080846B0F8180840F4807068
:10149000A1F818080846B0F8200820F00200A1F8CA
:1014A00020080846B0F8200820F02000A1F8200805
:1014B0000846B0F8180840F03000A1F818080846AF
:1014C000B0F8080840F00300A1F808080846B0F892
:1014D000000840F00100A1F8000810BD01460229F3
:1014E00004D003290BD004291DD112E04FF0804213
:1014F000928C10B200224FF080439A8415E01C4A6F
:10150000128810B24FF000024FF08043A3F8242459
:101510000BE0184A128810B24FF000024FF08043DF
:10152000A3F8242801E0002000BF00BF7047124844
:1015300000884FF08040B0F8100820F001000E49FC
:10154000088070474FF08040008A4FF08040008A4A
:1015500020F001004FF080410882704700100240E7
:101560000008014000000140000C01402808004034
:10157000240400402408004010080040FC48806912
:1015800040F00800FA498861FA48006820F0FF003E
:10159000F949C1F8040C0846D0F8040C40F03300B7
:1015A000C1F8040C704710B5F248006820F0F00054
:1015B000F149C1F8040C0846D0F8040C40F03000A2
:1015C000EC4908604FF00100EC49C1F8A40108465D
:1015D000D0F8240108B9002010BD0120E8490860B6
:1015E000FEF772FE0020E549C1F8A401E548006855
:1015F00008B10020F0E70120FEF766FE0020E04978
:1016000008604FF00100E7E710B5DA48006820F005
:10161000F000D949C1F8040C0846D0F8040C40F099
:101620003000D44908604FF00000D5490860D34924
:10163000C1F8A4014FF00100FEF746FE0120D04999
:101640000860CE49C1F8A401FEF73EFE10BD10B5FA
:101650000024C848006820F0F000C749C1F8040C15
:101660000846D0F8040C40F08000C24908604FF0F2
:101670000100C5490860FEF727FE0120BF49C1F8F7
:10168000A001FEF721FE0AE0601CC4B2322C03DD8B
:10169000FFF7BAFF002010BD0120FEF715FEB94884
:1016A00000680028F0D1B64908604FF00100F2E769
:1016B00010B50020B2490860AF48D0F8040C20F003
:1016C000F000AD49C1F8040C0846D0F8040C40F015
:1016D0003000A84908604FF00000A849C1F8A401F3
:1016E0004FF00100FEF7F0FD0120A449C1F8A00170
:1016F000FEF7EAFD0020A149C1F8A00110BD10B518
:1017000000209F4908609C48D0F8040C20F0F000AD
:101710009949C1F8040C0846D0F8040C40F0300098
:10172000944908604FF001009449C1F8A401FEF704
:10173000CBFD01209149C1F8A001FEF7C5FD0020B5
:101740008E49C1F8A00110BD70B5044689480068F3
:1017500020F0F0008849C1F8040C0846D0F8040CC9
:1017600040F03000834908604FF000008449086071
:10177000054619E0E009844908604FEA44604FEAF1
:1017800010644FF00100FEF79FFD01207B49C1F876
:10179000A001FEF799FD0020794908604FF0010093
:1017A000FEF792FD681CC5B2082DE3DB70BD2DE984
:1017B000F04105460E4617469846FFF7F4FE10B96D
:1017C0000120BDE8F0816906080EFFF7BDFFFFF7B5
:1017D0003EFF18B9FFF718FF0120F2E73046FFF788
:1017E000B3FFFFF734FF00240BE018F80400FFF705
:1017F000ABFFFFF72CFF18B9FFF706FF0020E0E76B
:10180000641CBC42F1DBFFF7FFFE0020D9E770B596
:10181000054600245748006820F0F0005649C1F8FA
:10182000040C0846D0F8040C40F08000C1F8040C09
:101830004FF0000616E00020514908604FF002000A
:10184000FEF742FD01204D49C1F8A0016006040EDB
:101850004C48006808B1601CC4B20220FEF734FD99
:10186000701CC6B2082EE6DB15B1FFF721FF01E0C0
:10187000FFF745FF204670BD2DE9F04106460F46B3
:1018800014461D46FFF78FFE10B90120BDE8F08118
:101890007106080EFFF758FFFFF7D9FE18B9FFF7DA
:1018A000B3FE0120F2E73846FFF74EFFFFF7CFFE09
:1018B000FFF779FE012101EB4601C8B2FFF744FFB3
:1018C000FFF7C5FE0DE0012C04D10020FFF79FFFBC
:1018D000287003E00120FFF79AFF28706D1C601E3E
:1018E000C4B2002CEFD1FFF78FFE0020CEE770B519
:1018F00005460E460024FFF756FE2846FFF724FF54
:10190000641CFFF7A4FE3046FFF71EFF641CFFF7C0
:101910009EFEFFF748FE681CC0B2FFF715FF641C6F
:10192000FFF795FE0020FFF772FF0446FFF76CFEFD
:10193000204670BD2DE9F04180460F4615461E46F3
:101940000024FFF730FE4046FFF7FEFEFFF77FFE64
:101950003846FFF7F9FEFFF77AFEFFF724FE08F19D
:101960000100C0B2FFF7F0FEFFF771FE00BF1BE001
:1019700000100240040C01400000014000802142A0
:10198000A081214224812142A4812142681EA042DB
:1019900004D00120FFF73BFF305503E00020FFF7A4
:1019A00036FF3055601CC4B2AC42EFDBFFF72CFEB3
:1019B0002046BDE8F0812DE9F04180460D461646EF
:1019C0001F460024FFF7EFFD4046FFF7BDFEFFF77F
:1019D0003EFE2846FFF7B8FEFFF739FE00BF06E0DF
:1019E000385DFFF7B1FEFFF732FE601CC4B2B442AF
:1019F000F6DBFFF709FE0120BDE8F08170B5054672
:101A00000E46144631462846FFF771FF207001202C
:101A100070BD37B504460D4602AB0122294620466B
:101A2000FFF7C9FF3EBD2DE9F84307468846144637
:101A30001D46089E6A4641463846FFF7DFFF38B329
:101A4000601CFF2101FA00F0C4F108012944491E7D
:101A5000FF220A41104300F0FF09C5F1080006FA11
:101A600000F0C6B2C4F1070046FA00F0C6B29DF815
:101A7000000000EA090000909DF80000304300904B
:101A80009DF8002041463846FFF7C3FFBDE8F883C4
:101A90000020FBE7F8B506460F4614461D466A4689
:101AA00039463046FFF7AAFF2DB10120A0409DF82E
:101AB0000010084305E00120A0409DF8001021EA35
:101AC0000000C0B200909DF8002039463046FFF774
:101AD000A0FFF8BD2DE9F05F05460E46300106F087
:101AE0009BFB8146CE4905FB01F006F095FB824643
:101AF000494606F047FA0746384606F055FB84B2D9
:101B0000204606F089FB8346394606F0D1FC824622
:101B10004FF0834106F0C8FB814606F045FB804646
:101B2000240104EB080084B2BE48806940F008003C
:101B3000BC4988610846C06940F48020C861BA4841
:101B4000006820F47F40B949C1F8040C0846D0F879
:101B5000040C40F40B40C1F8040C0846D0F80C0CFF
:101B600040F48060C1F80C0CAE48006940F480205D
:101B7000AC4908610846006920F4802008614FF0F4
:101B80004020A0F80848AA48008842F20C0140EA28
:101B900001004FF04021A1F80C080846B0F80C08ED
:101BA00040F48070A1F80C080846B0F80C0840F02A
:101BB00020009F4908804FF002034FF027024FF0AA
:101BC00001011846FEF7D5FBBDE8F09F9948008853
:101BD00010F0200F79D0984800889849086008468E
:101BE0000068974908700846007896490978884245
:101BF00012D1934840789349497888420CD1904853
:101C0000807890498978884206D100208E490870F2
:101C10008B49087048708870894800788B4909782A
:101C2000884213D1864840788849497888420DD146
:101C30008348807885498978884207D10120824984
:101C4000087000207E490870487088707B480068E2
:101C5000592802D102207E49087078480068582827
:101C600002D101207A490870744800680A2865DDAD
:101C7000724800685A2809D10020764908707649D0
:101C80000870764908707649087057E06B4800681C
:101C900041280AD101206F49087000206E49087060
:101CA0006E4908706E49087048E06448006845282D
:101CB0000CD1002067490870012067490870002096
:101CC000664908706649087038E0A8E05B4800681B
:101CD000422807D059480068432803D05748006875
:101CE00044280AD100205B4908705B4908705B49B1
:101CF000087001205A49087020E0504800684628C2
:101D000007D04E480068472803D04C480068482850
:101D10000BD100204F4908704F49087001204F49EE
:101D2000087000204E49087008E0002049490870FA
:101D30004949087049490870494908703F48006896
:101D40000A2865DA0120424908703C48006848B911
:101D500000204049087040490870404908704049D7
:101D6000087055E035480068012809D139490870E4
:101D7000002039490870394908703949087047E02E
:101D80002E48006805280BD1002032490870012038
:101D9000314908700020314908703149087037E036
:101DA00026480068022807D024480068032803D08A
:101DB0002248006804280AD10020264908702649D4
:101DC00008702649087001202549087020E01B484A
:101DD0000068062807D019480068072803D017486C
:101DE000006808280BD100201A4908701A490870A9
:101DF00001201A49087000201949087008E00020E5
:101E0000144908701449087014490870144908707E
:101E10000B4840780A498870084600784870704737
:101E200040420F0000100240040C0140000001403D
:101E30000C48004000480040044800406800002072
:101E40006D000020630000200200002060000020E0
:101E500001000020050000200600002007000020EF
:101E60000800002010B51448806940F008001249AD
:101E700088611248006820F470001149C1F8000C14
:101E80000846D0F8000C40F40000C1F8000C0846E9
:101E9000D0F80C0C40F02000C1F80C0C4FF00102FF
:101EA0004FF005011046FEF7A0FA02231722012188
:101EB0001846FEF75EFA10BD00100240000C01400B
:101EC000000001400146002901DA484200E00846CE
:101ED000704700B503460A46002B08DA0120FC498A
:101EE00008604FF00000FB49C1F8B80107E000208E
:101EF000F74908604FF00100F649C1F8B8011846EB
:101F0000FFF7E0FFF4490880002A08DA0020F349CF
:101F100008604FF00100EF49C1F8B00107E001206F
:101F2000EE4908604FF00000EA49C1F8B0011046E0
:101F3000FFF7C8FFEA49088000BD70B506460D46A8
:101F4000E849304606F07CF90CD3E749304606F004
:101F50007EFA07D3E5480078012803D040F25640C6
:101F600085420CDA01240020E1490860D949C1F812
:101F7000BC01DA490860D749C1F8B00100E000248B
:101F8000204670BD70B506460C461546D748007809
:101F900008B9002070BDD748008870B9D6493046CE
:101FA00006F055FA09D2D549304606F049F904D26F
:101FB0001CB915B90120CF490880CE4800880128F6
:101FC00019D1CF480088401C80B2CD490880322802
:101FD00003DD00200880C7490880032C0BDD032D9A
:101FE00009DD3C2C07DA3C2D05DA0020C1490880C8
:101FF00008800120CEE70020CCE72DE9F04107461C
:102000000E4614461D46BF480088E0B92046FFF73B
:1020100059FF02462846FFF755FF10441E2805DAEF
:10202000B9480088401CB849088002E00020B64941
:102030000880B54800880A2805DD0120B1490880DC
:102040000020B1490880AF48008801281DD1AF4861
:102050000088401C80B2AD490880C82803DD0020FC
:102060000880A8490880AA49384606F0F0F90CD241
:10207000A849304606F0EBF907D2A749304606F0EA
:10208000DFF802D202209F4908809E48008802287B
:1020900016D1A2480088401C80B2A049088064285C
:1020A00003DD00200880974908806019FFF70AFFC8
:1020B000872805DD0020934908800120BDE8F081D4
:1020C0000020FBE741F6F42095490978012904D165
:1020D000944909686431934A116093490978012948
:1020E00004D1924909686439904A11608D490968A0
:1020F0004242914202DA41428A4A116089490968A2
:10210000814201DD8749086088490968424291425D
:1021100002DA4142854A116084490968814201DD41
:102120008249086070472DE9F84F07468846914676
:102130007F480078582191FBF0F4204606F054F8CF
:102140000646DFF8F0A14FF0000B7B48007801282D
:1021500003D07A480078012835D14FF07E51784875
:10216000006805F0A1FE7649044608604FF07E51F4
:1021700005F0CAFF08D107EB0800FFF7A3FE0446ED
:1021800006F032F86F4908606E4801686E4805F045
:10219000F9FE6E4908600846006805F059FE0446DD
:1021A0004FF033326A4B05F03DFB02D26948674974
:1021B000086069496548006806F049F90BD266482D
:1021C0006249086007E065486049086000205C4992
:1021D00008605C49086058480078012808D15B48CD
:1021E00001685F48006806F06DF95D4908600FE01E
:1021F00052480078012808D15448016858480068BE
:1022000005F052FE5649086002E00020544908607B
:1022100031465348006806F01AF901D2504806606A
:1022200086F000444E480168204606F010F903D2BB
:1022300086F000404A49086039480078012803D0F8
:1022400039480078012802D14FF07C5B01E04FF063
:10225000000B5946484606F027F8009040480068B1
:1022600080F000455146284606F01EF804460099C5
:1022700006F028F93B4908600846006805F078FF39
:10228000BDE8F88F2DE9FC5F374801903748009092
:1022900037480078012807D125480078012803D164
:1022A00024483449086002E03348324908601C4839
:1022B0000078012864D11E48007805F0ADFF04467F
:1022C00001462C48006805F05DFE2C4908606EE070
:1022D000BC81214200802142342C0140B481214242
:1022E000402C0140000020C20000204202000020DB
:1022F000B8812142AC0000200000E0C00000504145
:10230000AE000020A4000020A6000020A8000020AD
:102310000020CB46000088C10000B841AA00002080
:1023200005000020140000200600002018000020F6
:1023300001000020000034420700002008000020B7
:10234000A000002098000020000048429C000020CF
:102350003333E33F9A99193F000040406666663F79
:1023600090000020940000200000A042CDCCCC3E84
:10237000040000208C0000200000DC4284000020CB
:10238000FF48007801280FD1FE48007805F044FF8F
:102390000546FD48006880F000442946204605F0C7
:1023A000F1FDFA49086002E00020F8490860F848A9
:1023B000007801281BD1F7480068B0F5FA7F16D2E3
:1023C000F5480078012812D0F448007801280ED092
:1023D000EC48007805F020FF0546EB48006880F0E7
:1023E00000442946204605F0CDFDE8490860EC4947
:1023F0000968EC4A12681144084605F0F5FEEA49FE
:102400000860EA48006805F023FD0646E84AE94B03
:1024100005F044FA044604F067FFE4490860E24826
:10242000006805F015FD0446E14AE34B05F036FA75
:1024300006460F46DD48006805F00AFD8046324634
:102440003B4604F083FF824604F04EFFD749086004
:1024500008460168D948006805F026FDD74908609C
:10246000CA480168D548006806F02CF8D3490860CE
:10247000D349D248006805F0EAFF02D2D048CF49DC
:102480000860D049CD48006805F0DAFE02D2CD4898
:10249000CA490860C9480099006805F005FF04466C
:1024A000C2480199006805F0FFFE0546214605F087
:1024B000FBFCC5490860C5480168C5480068FFF7CE
:1024C0003CFD012803D0C3480078012802D1002038
:1024D000BA490860BC48006805F04AFEBDE8FC9FA8
:1024E0002DE9F84F05460C46BB4E4FF07E57BB49D1
:1024F000284605F0E7FF00903946204605F0D4FE57
:1025000082463046009905F0CFFE8346514605F0DD
:10251000CBFC814605F02CFE80464046BDE8F88F96
:1025200070B53220FEF76AF90546012D07D1A9489A
:10253000007808B9012000E00020A6490870022DAB
:1025400007D1A748007808B9012000E00020A4497D
:102550000870FEF7C2F90446012C07D18C480078B8
:1025600008B9012000E000208949087070BD2DE9FC
:10257000F04F89B0814603F080FD9A490860B9F1B7
:10258000010F1BD103F0E9FB9748006890490860F0
:102590009649B1F9020005F027FE95490860934974
:1025A000B1F9040005F020FE924908609249B1F9A2
:1025B000040005F019FE91490860B9E04621D020D9
:1025C000FFF795F905464521D020FFF790F905EB77
:1025D0000024204605F008FE06464821D020FFF7DB
:1025E00086F905464721D020FFF781F905EB002445
:1025F000204605F0F9FD80463C21D020FFF777F911
:1026000005463B21D020FFF772F905EB0024204658
:1026100005F0EAFD83464021D020FFF768F9054622
:102620003F21D020FFF763F905EB0024204605F099
:10263000DBFD07464FF08E41304605F008FF05D21E
:102640004FF08F41304605F03DFF06464FF08E417A
:10265000404605F0FCFE05D24FF08F41404605F0A4
:1026600031FF80464FF08E41584605F0F0FE05D20E
:102670004FF08F41584605F025FF83464FF08E41BD
:10268000384605F0E4FE05D24FF08F41384605F09C
:1026900019FF074686F0004055490860384605F0A6
:1026A000D7FBCDE90001584605F0D2FB0446DDE931
:1026B000002304F033FD0022514BCDE9020105F067
:1026C000EDF8504A504BCDE9040104F0F9FECDE994
:1026D000060104F009FE8246304605F0B9FB4FF0D2
:1026E00066324A4BCDE9060104F0EAFE044604F0E6
:1026F000FBFD064646480078022806D186F00044D5
:102700002146504602F05EFF09E041480078032868
:1027100005D186F000442146504603F06AF83D4852
:1027200000682B4908603348C0F8008033480760D0
:1027300009B0BDE8F08F10B537480068F8B920201F
:10274000364908603648007808B9012000E00020CA
:10275000334908703348007801280BD1324800789B
:10276000401CC0B2304908700A2803D1002008700C
:102770002C4908702A48007801285DD156E0D6E03F
:1027800006000020010000208C00002084000020B2
:102790000400002034000020070000200800002072
:1027A0000C000020100000207C0000208000002091
:1027B0009A9999999999E93F9999C93F8800002078
:1027C00000401C4600401CC678000020200000206D
:1027D000240000200200002000009643000040403A
:1027E000030000201C000020700100206001002078
:1027F000280000202C000020660100203C00002062
:1028000000806640F1D4C853FB2109406666304021
:102810000000002014010020148121421404014012
:10282000BC0000203900002038000020414800781A
:10283000FFF79DFE002010BD0220FEF74FFE404234
:102840003D4908600420FEF749FE3C4908603948CC
:102850000078FFF78CFEFEF731FC3948007810B99C
:102860006420FDF78BFF36480078012802D1002054
:10287000FDF784FFFEF77BFB32490860FFF750FE4F
:102880003148016831480068FFF72AFE3049086086
:102890002A48016828480068FFF7F4FC2D490860C1
:1028A0002D4802682548016823480068FFF73BFC73
:1028B0002A4908602648006826490968401A2749BD
:1028C00009680844264908602148006821490968C8
:1028D000401A22490968401A22490860FFF7F2FBB2
:1028E0001648036814480268184801681E480068C2
:1028F000FFF783FB10B101201C4908700F480268E4
:102900000D48016811480068FFF73CFB10B100203A
:10291000164908700B4801680C480068FFF70DFB6A
:1029200028B9104801680E480068FFF7D2FA002065
:1029300081E70000000000200C00002010000020B3
:102940000400002020000020280000202400002097
:10295000B0000020B40000202C000020B8000020AF
:1029600014000020180000203C000020020000207D
:1029700038B50446FB4890F82400C0B114B10220D9
:10298000009001E000200090F64A1268D17BF54AE1
:10299000526810786B460122FEF709FF10B14FF024
:1029A000FF3038BD9DF80010EE48417423E0ED483B
:1029B000807A10B94FF0FF30F3E724B1E948407C4A
:1029C00008B10020EDE714B10120009001E00020E3
:1029D0000090E44A1268D17BE24A526810786B4654
:1029E0000122FEF7E4FE10B14FF0FF30D9E79DF869
:1029F0000010DC4841740020D3E738B5002419E00A
:102A0000D8480068C07AA04204D0D6480068407D0B
:102A1000A04200D10CE0D349496808786B460122F6
:102A20002146FEF729FF10B14FF0FF3038BD00BF3F
:102A3000601CC4B2CB4840680079A042E0DC0020B2
:102A4000F4E770B504460D46C6480068C07AA04257
:102A500004D0C4480068407DA04202D14FF0FF304E
:102A600070BDC04840680079A04202DC4FF0FF30E2
:102A7000F6E7BC49496808782B4601222146FEF753
:102A8000FBFEEDE738B50446B64890F82300A042B7
:102A900001D1002038BD14B13020009001E00020A9
:102AA0000090B048807C20B19DF8000040F002000A
:102AB0000090AC4890F8220020B19DF8000040F052
:102AC00080000090A74A1268117DA64A52681078CB
:102AD0006B460122FEF76BFE10B14FF0FF30D9E7D5
:102AE000A04880F823400020D4E738B5044614F00D
:102AF000700F02D00120009005E014B1002000907A
:102B000001E040200090974A1268917C954A5268F3
:102B100010786B460122FEF74AFE20B10021914851
:102B20008172481E38BD9DF8000020F040008D499C
:102B300008730020009014F0400F04D19DF80000AD
:102B400040F00400009014F0200F04D19DF8000024
:102B500040F00200009014F0100F04D19DF8000026
:102B600040F00100009014F0080F04D19DF800001F
:102B700040F0380000907B4A1268D17C794A526854
:102B800010786B460122FEF712FE20B10021754835
:102B90008172481EC6E724B1082C02D00020FFF73E
:102BA00071FF70488472002101753220FDF7A7FB88
:102BB0000020B7E738B504466A48807CA04201D1BE
:102BC000002038BDF4B3674A12681179654A52682B
:102BD00010786B460122FEF74FFE10B14FF0FF3028
:102BE000EFE79DF8000020F0200000905D4A126899
:102BF00011795C4A526810786B460122FEF7D7FDC6
:102C000010B14FF0FF30DCE70320FDF778FB022026
:102C10000090544890F8220020B19DF8000040F048
:102C2000800000904F4890F8230020B19DF80000EC
:102C300040F0300000904B4A1268117D494A5268BA
:102C4000107800E007E06B460122FEF7B0FDC0B34C
:102C50004FF0FF30B5E7434A12681179414A526894
:102C600010786B460122FEF707FE10B14FF0FF30DF
:102C7000A7E73C48807A10F0010F05D09DF80000CE
:102C800040F02000009004E09DF8000020F02000BB
:102C90000090344A12681179324A526810786B46B3
:102CA0000122FEF784FD10B14FF0FF3089E70320C9
:102CB000FDF725FB2B4890F8220018B180200090EA
:102CC00002E018E000200090264890F8230020B190
:102CD0009DF8000040F030000090224A1268117DFB
:102CE000204A526810786B460122FEF760FD10B151
:102CF0004FF0FF3065E71B488474002061E708B59A
:102D00001848807A10B94FF0FF3008BD00200090BD
:102D1000144A1268D17B134A526810786B4601221C
:102D2000FEF745FD10B14FF0FF30EEE70D4A126897
:102D300051790C4A526810786B460122FEF737FD34
:102D400010B14FF0FF30E0E7064A12681179054AEA
:102D5000526810786B460122FEF729FD20B14FF032
:102D6000FF30D2E7C0000020F84890F8240078B384
:102D70000C200090F54A12681179F44A52681078D4
:102D80006B460122FEF713FD10B14FF0FF30BCE798
:102D9000C0200090ED48807A10F0010F04D09DF81B
:102DA000000040F020000090E84A12681179E74ADC
:102DB000526810786B460122FEF7F9FC10B14FF013
:102DC000FF30A2E7E148407C18B10220009002E009
:102DD0001FE000200090DD4A1268D17BDB4A526878
:102DE00010786B460122FEF7E2FC10B14FF0FF3085
:102DF0008BE700200090D54A12685179D34A526877
:102E000010786B460122FEF7D2FC98B34FF0FF30EA
:102E10007BE704200090CD4A12681179CB4A5268B2
:102E200010786B460122FEF7C2FC10B14FF0FF3064
:102E30006BE7C648807C20B9C448807A10F0010F47
:102E400002D14020009001E060200090BF4A12684B
:102E50001179BE4A526810786B460122FEF7A7FC32
:102E600010B14FF0FF3050E7B848407C18B1012056
:102E7000009002E01EE000200090B44A1268D17B6E
:102E8000B24A526810786B460122FEF790FC10B1EE
:102E90004FF0FF3039E7AD4A12685179AB4A5268BA
:102EA0001078AA4B10330122FEF781FC10B14FF0CD
:102EB000FF302AE7002028E770B50446002624F0FA
:102EC0000104A24890F8240008B1002070BD9F487A
:102ED000807A10B94FF0FF30F8E79C48057C807A83
:102EE00020409A4908740846007CA04202D04FF066
:102EF000FF3600E0002614B99448007D18B1012087
:102F0000FFF736FD02E00020FFF732FD3CB1FFF78E
:102F1000F6FE20B18D4805744FF0FF30D6E73046FD
:102F2000D4E738B504468948807A10B94FF0FF30AD
:102F300038BDBC2C02DB0120009015E0622C02DBC6
:102F40000220009010E02A2C02DB032000900BE00E
:102F5000142C02DB0420009006E00A2C02DB052082
:102F6000009001E0062000907848C07A9DF800109B
:102F7000884201D10020DBE7744A12689178734AD5
:102F8000526810786B460122FEF711FC10B14FF029
:102F9000FF30CDE79DF800106C48C1720020C7E7F4
:102FA00038B50446282C02DD4FF0FF3038BDDCB9BF
:102FB0000020FFF767FD00208DF8000007208DF846
:102FC0000100624A1268917C604A526810786B4630
:102FD0000222FEF7ECFB10B14FF0FF30E6E70021D4
:102FE0005A4801750020E1E70120FFF74BFD202042
:102FF0008DF80000012C06D100208DF8010005207D
:10300000FFF78FFF17E0052C06DC01208DF801008B
:103010000520FFF786FF0EE0142C06DC02208DF859
:1030200001000A20FFF77DFF05E003208DF8010075
:103030001420FFF776FF9DF80100072101EB8010B7
:10304000C0B28DF80100414A1268917C3F4A526833
:1030500010786B460222FEF7AAFB10B14FF0FF304A
:10306000A4E708213948817200210173012101750B
:103070000020FFF721FF002098E738B504463348C9
:10308000807A10B94FF0FF3038BD304890F82400F6
:1030900010B14FF0FF30F7E72C48007D50B134B14C
:1030A000282C04DCE0B2FFF77BFF0020ECE70020D7
:1030B000FFF776FF042C01DA042404E0B4F57A7FEC
:1030C00001DD4FF47A744FF47A7090FBF4F0401EF7
:1030D000C0B200901D4A126851781C4A526810789C
:1030E0006B460122FEF763FB10B14FF0FF30CBE7D8
:1030F0009DF80000401C4FF47A7191FBF0F081B212
:103100001248C1810146C9894810FFF70AFF002013
:10311000BAE738B504460D48807A10B94FF0FF3051
:1031200038BD022C06D0042C07D0082C08D0102C57
:103130000ED108E0002000900DE0082000900AE089
:103140001020009007E01820009004E0C00000204C
:103150004FF0FF30E4E700BFFA48407A9DF80010D6
:10316000B0EBE10F01D10020DAE7F64A1268D1791D
:10317000F44A526810786B460122FEF718FB10B132
:103180004FF0FF30CCE79DF80000C010ED494872C9
:103190000020C5E738B50446EA48807A10B94FF0F8
:1031A000FF3038BDFA2C09D0B4F5FA7F09D0B4F558
:1031B0007A7F09D0B4F5FA6F0CD108E000200090B6
:1031C0000BE00820009008E01020009005E0182097
:1031D000009002E04FF0FF30E3E700BFD948007AEB
:1031E0009DF80010B0EBE10F01D10020D9E7D54ADE
:1031F00012689179D34A526810786B460122FEF723
:10320000D6FA10B14FF0FF30CBE79DF80000C010A8
:10321000CC4908720020C4E71CB580208DF800005E
:10322000C84A1268917CC74A526810786B460122DE
:10323000FEF7BDFA10B14FF0FF301CBD6420FDF762
:103240005EF800208DF80000BE4A1268917CBD4AED
:10325000526810786B460122FEF7A9FA10B14FF0C0
:10326000FF30EAE7B74A1268917DB64A5268107893
:103270006B460622FEF700FB10B14FF0FF30DCE793
:103280009DF80500C007400F9DF8031001F00101F3
:1032900040EA41009DF8011001F0010140EA0104FB
:1032A00094B1012C03D10121A648C17431E0022C54
:1032B00003D10021A348C1742BE02146A2A003F052
:1032C00021FA4FF0FF30B8E79E4A1268D1789D4A44
:1032D000526810786B460122FEF7CEFA10B14FF01B
:1032E000FF30AAE79DF8000000F00F042CB9A048B9
:1032F00003F008FA4FF0FF309FE7042C06D19DA0A1
:1033000003F000FA01218F48C17402E000218D48CA
:10331000C174FF218B488172FF208A490872FF2106
:1033200088484172C1724FF6FF71C181FF2101745B
:1033300081740121017380F82210002180F823108C
:10334000417501750830C0F80E10C0F81210C0F8B1
:103350001610083880F8241080F82510C1844FF426
:10336000FA60FFF717FF10B14FF0FF3065E702205A
:10337000FFF7CFFE10B14FF0FF305EE72A20FFF7D6
:10338000D0FD10B14FF0FF3057E73220FFF775FE48
:1033900010B14FF0FF3050E70020FFF78DFD10B166
:1033A0004FF0FF3049E70020FFF704FC10B14FF069
:1033B000FF3042E70020FFF798FB00203DE7704711
:1033C0007CB504460D465F48807A10F0700F02D13C
:1033D0004FF0FF307CBD5B4A1268117B594A52683E
:1033E00010786B460622FEF747FA10B14FF0FF3017
:1033F000F0E79DF801009DF8001040EA012000B2BE
:1034000020809DF803009DF8021040EA012000B2E0
:1034100060809DF805009DF8041040EA012000B28C
:10342000A08015B12846FFF7CAFF0020D2E77CB57F
:1034300004460D464348807A10F0080F02D14FF041
:10344000FF307CBD3F4A1268517B3E4A526810787B
:103450006B460622FEF710FA10B14FF0FF30F0E78E
:103460009DF801009DF8001040EA012000B2208084
:103470009DF803009DF8021040EA012000B2608030
:103480009DF805009DF8041040EA012000B2A080DC
:1034900015B12846FFF793FF0020D2E72DE9FE4F34
:1034A00005460C462748807A18B94FF0FF30BDE832
:1034B000FE8F244A1268917B224A5268107802AB30
:1034C0000222FEF7D9F910B14FF0FF30EFE79DF877
:1034D00009009DF8081040EA012006B214B1204608
:1034E000FFF76DFF17494968C88804F095FE154934
:1034F00001904968B1F9080004F076FE8346304631
:1035000004F072FE5946009004F0DCFF82460199F7
:1035100004F038FD81461F4904F0C6FC80464FF098
:103520008F4104F0C1FE074604F022FE286000200F
:10353000BDE710B588B004461CB94FF0FF3008B0A5
:1035400010BD29E0C0000020556E737570706F7259
:1035500074656420736F6674776172652070726F32
:1035600064756374207265762025642E0A0000005D
:103570005891000848616C662073656E73697469C0
:1035800076697479207061727420666F756E642E2E
:103590000D0A000000000C42206830B9606820B9B4
:1035A000A06810B9002008B010BDFA494968087831
:1035B00006AB03221146FEF75FF910B14FF0FF3062
:1035C000F1E79DF81800082101EB201000F00F0032
:1035D000ADF800009DF8190001EB201000F00F007D
:1035E000ADF802009DF81A0001EB201000F00F006A
:1035F000ADF8040020684100BDF90000403091FBA7
:10360000F0F000B2ADF8100060684100BDF90200B2
:10361000403091FBF0F000B2ADF81200A06841001C
:10362000BDF90400403091FBF0F000B2ADF8140099
:10363000D8494968087806AB06221146FEF71CF9FE
:1036400010B14FF0FF30AEE79DF819009DF818104B
:1036500040EA012000B2ADF808009DF81B009DF87B
:103660001A1040EA012000B2ADF80A009DF81D00D2
:103670009DF81C1040EA012000B2ADF80C00BDF826
:103680001000BDF80810084400B2ADF81000BDF8F5
:103690001200BDF80A10084400B2ADF81200BDF8DF
:1036A0001400BDF80C10084400B2ADF81400BDF8C9
:1036B0001000000A8DF81800BDF81000C0B28DF897
:1036C0001900BDF81200000A8DF81A00BDF81200AA
:1036D000C0B28DF81B00BDF81400000A8DF81C0064
:1036E000BDF81400C0B28DF81D00AA4949680878D9
:1036F00006AB06221146FEF75AF810B14FF0FF3024
:1037000051E700204FE70146A248007A30B1012876
:1037100007D0022809D003280FD10AE0FA20088038
:103720000EE04FF4FA7008800AE04FF47A700880D7
:1037300006E04FF4FA60088002E00020088000BF35
:1037400000BF0020704701469248407A30B10128FE
:1037500007D0022808D003280CD108E00220087006
:103760000BE00420087008E00820087005E0102035
:10377000087002E04FF0FF30704700BF8548C07C02
:1037800018B108784006000E08700020F4E70146E2
:103790008048C07A082817D2DFE800F01704070A2B
:1037A0000D101318BC20088013E06220088010E080
:1037B0002A2008800DE0142008800AE00A200880F2
:1037C00007E00520088004E000BF00BF002008805B
:1037D00000BF00BF0020704701466E4890F82400EB
:1037E00010B14FF0FF3070476A48C0890880002050
:1037F000F9E7014600200880401E704701464FF05F
:10380000FF30704701466348007A30B1012807D085
:10381000022808D003280CD108E05F4808600BE0BC
:103820005E48086008E05E48086005E05D480860A2
:1038300002E04FF0FF30704700BF0020FBE7014679
:103840005448407A30B1012808D002280AD0032811
:1038500010D10BE04FF4804008800EE041F69C70E0
:1038600008800AE04FF48050088006E04FF40060C2
:10387000088002E04FF0FF30704700BF4548C07C31
:1038800010B10888401008800020F5E70146414843
:10389000007C08700020704701463E48807A10B1D5
:1038A0000120087001E0002008700020704738B542
:1038B00004463848807A10B94FF0FF3038BD354A99
:1038C0001268117C334A526810786B460222FDF769
:1038D000D3FF10B14FF0FF30F0E79DF801009DF8E5
:1038E000001040EA012000B220800020E6E72DE928
:1038F000FE4F8046894692461D46DDF830B00026D0
:103900000024244890F8240010B1601EBDE8FE8F0A
:10391000002028701F48807A10B94FF0FF30F5E77B
:103920001C48007C10B94FF0FF30EFE71948007CCD
:1039300010F0400F01D0B01CC6B21648007C10F049
:10394000200F01D0B01CC6B21248007C10F0100F3E
:1039500001D0B01CC6B20F48007C10F0080F01D097
:10396000B01DC6B20B4A1268917A0A4A52681078A2
:103970006B460222FDF780FF10B14FF0FF30C5E724
:103980009DF801009DF8001040EA0127B7420BDACC
:103990000020BBE7C000002000000343000083427A
:1039A0003333034233338341FB4840684088B7EBED
:1039B000600F17DDF84A1268517CF74A5268107898
:1039C0006B460122FDF758FF10B14FF0FF309DE725
:1039D0009DF8000010F0100F04D0FFF790F96FF081
:1039E000010093E75046FFF7EAFCEB4A1268D17AF0
:1039F000E94A526810786B463246FDF73DFF10B138
:103A00004FF0FF3082E797FBF6F0401E8BF8000086
:103A100000202870B4422AD0DF48007C10F0080F44
:103A200025D0601C1DF800001DF8041040EA01209C
:103A300000B2A9F80000E01C1DF80010A01C1DF841
:103A4000000041EA002000B2A9F80200601D1DF844
:103A50000010201D1DF8000041EA002000B2A9F866
:103A60000400287840F008002870A01D84B2B442F9
:103A700014D0C948007C10F0400F0FD0601C1DF816
:103A800000001DF8041040EA012000B2A8F8000070
:103A9000287840F040002870A01C84B2B44214D0B2
:103AA000BD48007C10F0200F0FD0601C1DF80000F6
:103AB0001DF8041040EA012000B2A8F8020028789E
:103AC00040F020002870A01C84B2B44214D0B24848
:103AD000007C10F0100F0FD0601C1DF800001DF8C6
:103AE000041040EA012000B2A8F80400287840F051
:103AF00010002870A01C84B2002007E7F8B5054626
:103B00000F461646A44890F8240010B94FF0FF3035
:103B1000F8BDA148807A10B94FF0FF30F8E79E4A0F
:103B20001268917A9C4A526810786B460222FDF71F
:103B3000A3FE10B14FF0FF30EAE79DF801009DF8B9
:103B4000001040EA0124AC4203DA00203070401E2D
:103B5000DEE7914840684088B4EB600F17DD8E4A7D
:103B60001268517C8C4A526810786B460122FDF72E
:103B700083FE10B14FF0FF30CAE79DF8000010F04F
:103B8000100F04D0FFF7BBF86FF00100C0E7824AC6
:103B90001268D17A804A526810783B46EAB2FDF743
:103BA0006BFE10B14FF0FF30B2E794FBF5F0401E12
:103BB00030700020ACE70146774880F822100020E2
:103BC00070477CB5054674494968087801AB042202
:103BD0000D21FDF751FE08B107207CBD9DF80700BF
:103BE000C0F301109DF8041001F0E00140EAE1008B
:103BF0008DF800009DF80700C0F381009DF80510C6
:103C000001F0E00140EAE1008DF801009DF80700B5
:103C100000F003009DF8061001F0E00140EAE10029
:103C20008DF8020000241CE01DF8040018B90020E3
:103C300045F8240013E0594845F8240006E055F8FB
:103C40002400574904F030FB45F824001DF8040017
:103C5000401E10F0FF000DF80400F0D100BF601C02
:103C6000C4B2032CE0DB0020B7E72DE9FE4F064687
:103C70000F4600256846FFF7A4FF002440E056F8F1
:103C8000240057F82410B0EB010A01D4514601E09A
:103C9000CAF10001084604F0A7FA83464FF08F41AD
:103CA00004F070F980465DF82400002104F02CFA3D
:103CB00016D05DF82410404604F064F982464FF0B7
:103CC0007E5104F0FFFB814629F0004A3548416AE5
:103CD000504604F0BCFB12D20120A04005430EE088
:103CE0003048C169404604F0ABFA05D32D48016A5B
:103CF000404604F0ACFB02D20120A0400543641C06
:103D0000032CBCDB2846BDE8FE8F2DE9FC5F064690
:103D10000F46002520494968087801AB03220D2190
:103D2000FDF7AAFD10B10720BDE8FC9F9DF8040037
:103D300000F01F008DF804009DF8050000F01F0042
:103D40008DF805009DF8060000F01F008DF80600B4
:103D500000245FE056F8240057F82410B0EB010B64
:103D600001D4594601E0CBF10001084604F03CFAC9
:103D70004FF08F41009004F005F9814601A8005DE5
:103D8000B8B30849086804F047FA83460146064874
:103D900004F0F8F880460EE0C00000207B14AE3E30
:103DA0001D5A843F3091000800B04C45FF49404601
:103DB00004F07AFA804601A8005D401E10F0FF0072
:103DC00001A90855F2D14146484604F0DBF8834684
:103DD0004FF07E5104F076FB82462AF0004BF44807
:103DE0008169584604F033FB13D20120A0400543FB
:103DF0000FE0FFE7EE480169484604F021FA05D3D9
:103E0000EB484169484604F022FB02D20120A04061
:103E10000543641C032C9DDB284685E72DE9F74FFD
:103E200092B006460C4601208DF8200000208DF847
:103E30002100E04A1268917CDE4A5268107808AB93
:103E40000222FDF7B4FC20B14FF0FF3015B0BDE801
:103E5000F08FC820FCF753FA00208DF82000D54AD7
:103E60001268D17BD34A5268107808AB0122FDF763
:103E70009EFC10B14FF0FF30E8E7CE4A126851794E
:103E8000CC4A5268107808AB0122FDF790FC10B1C3
:103E90004FF0FF30DAE7C74A1268917CC54A526892
:103EA000107808AB0122FDF782FC10B14FF0FF3013
:103EB000CCE7C04A1268D17DBE4A5268107808AB80
:103EC0000122FDF774FC10B14FF0FF30BEE7B94A94
:103ED00012681179B74A5268107808AB0122FDF7D1
:103EE00066FC10B14FF0FF30B0E70C208DF82000D9
:103EF000B04A12681179AF4A5268107808AB0122B3
:103F0000FDF755FC10B14FF0FF309FE70F20FCF795
:103F1000F6F9A848806A407A8DF82000A54A126810
:103F20009178A44A5268107808AB0122FDF73FFC53
:103F300010B14FF0FF3089E79E48806A007A8DF813
:103F400020009C4A126851789A4A5268107808AB4F
:103F50000122FDF72CFC10B14FF0FF3076E71498EA
:103F600038B19448806A807A40F0E0008DF82000F3
:103F700004E09048806A807A8DF820008D4A1268AB
:103F800091798C4A5268107808AB0122FDF70FFC3A
:103F900010B14FF0FF3059E7149838B18548806A66
:103FA000C07A40F0E0008DF8200003E08048C07A3D
:103FB0008DF820007F4A1268D1797E4A52681078C5
:103FC00008AB0122FDF7F3FB10B14FF0FF303DE7E6
:103FD000149810B1C820FCF792F940208DF8200009
:103FE000744A12681179734A5268107808AB01223A
:103FF000FDF7DDFB10B14FF0FF3027E778208DF89B
:1040000020006C4A126851796A4A5268107808ABED
:104010000122FDF7CCFB10B14FF0FF3016E76449E9
:104020008889FCF76CF900208DF82000614A12683D
:104030005179604A5268107808AB0122FDF7B7FB4E
:1040400010B14FF0FF3001E75A4A1268917A594A8D
:104050005268107808AB0222FDF70EFC10B14FF049
:10406000FF30F3E69DF821009DF8201040EA012082
:1040700006900C21069890FBF1F0C5B20020B060CC
:1040800070603060A06060602060079065E0494A21
:104090001268D17A474A5268107808AB0C22FDF7B3
:1040A000EBFB10B14FF0FF30D0E69DF821009DF8FA
:1040B000201040EA012000B2ADF810009DF8230066
:1040C0009DF8221040EA012000B2ADF812009DF8E0
:1040D00025009DF8241040EA012000B2ADF814003C
:1040E000BDF91010206808442060BDF91210606806
:1040F00008446060BDF91410A0680844A0609DF8F1
:1041000027009DF8261040EA012000B2ADF8080013
:104110009DF829009DF8281040EA012000B2ADF872
:104120000A009DF82B009DF82A1040EA012000B2F9
:10413000ADF80C00BDF90810306808443060BDF9D6
:104140000A10706808447060BDF90C10B06808442B
:10415000B0600798401CC0B207900798A84296DB51
:104160001348006803903768F817102211903846FA
:10417000119902F07CFACDE900010023039A02F0C4
:104180009CFA2A460023CDE9040102F096FA306039
:10419000074800680390D6F804804FEAE8701022C0
:1041A00010904046109902F062FA05E054E3853F12
:1041B00030910008C0000020CDE900010023039ADF
:1041C00002F07BFA2A460023CDE9040102F075FAD9
:1041D0007060FA4800680390D6F808904FEAE970DA
:1041E00010220F9048460F9902F041FACDE90001E4
:1041F0000023039A02F061FA2A460023CDE9040164
:1042000002F05BFAB060ED4840680390D4F800A07B
:104210004FEAEA7010220E9050460E9902F027FAEB
:10422000CDE900010023039A02F047FA2A46002351
:10423000CDE9040102F041FA2060E04840680390B3
:10424000D4F804B04FEAEB7010220D9058460D9947
:1042500002F00DFACDE900010023039A02F02DFAD5
:104260002A460023CDE9040102F027FA6060D34812
:1042700040680390A068C1171022CDE90B1002F02E
:10428000F6F9CDE900010023039A02F016FA2A4656
:104290000023CDE9040102F010FAA060A068002814
:1042A00004DDA068A0F58030A06003E0A06800F500
:1042B0008030A0600020C9E538B50446C04890F8B9
:1042C0002400A04201D1002038BD24B3BC4890F89E
:1042D000250010B94FF0FF30F6E70020FEF748FB4D
:1042E0000020FEF767FCB649C88CFEF7C6FE00202A
:1042F0000090B349496808786B4601222321FDF7F5
:1043000056FA0121AE4880F824100120FEF730FB58
:10431000FEF7F5FC13E00020FEF72AFBA848007C1E
:104320000090A749496808786B4601222321FDF7D0
:104330003EFA0021A24880F82410FEF7E0FC00209D
:10434000C2E72DE9F04F8DB083460F4602200C9056
:104350009B4890F8240020B10020FFF7ADFF012614
:1043600000E0002603A8FFF7CEF905A8FFF7EBF958
:1043700001A8FFF70CFA02A8FFF72EFA904890F870
:104380000AA004A8FFF782FA002407E000223946B9
:104390005846FFF743FD00B902E0641C022CF5DB30
:1043A00000BF022C01D1002528E0002407E00122F3
:1043B00006A909A8FFF732FD00B902E0641C022C2F
:1043C000F5DB00BF022C01D1002517E006A9384615
:1043D000FFF74BFC00F0FF0809A95846FFF795FCD2
:1043E00000F0FF090025B9F1000F01D145F00105EA
:1043F000B8F1000F01D145F0020500BFFF20704960
:104400000872FF216E484172C1724FF6FF71C1817F
:10441000FF218172017401210173BDF80C00FEF7C8
:10442000B9FE9DF81400FEF774FEBDF80400FEF717
:1044300078FDBDF80800FEF720FE5046FEF755FB5C
:104440009DF81000FEF738FD16B10120FFF734FF8C
:1044500028460DB0BDE8F08FF8B504460D46164667
:1044600016B94FF0FF30F8BD5548807A10B94FF0BB
:10447000FF30F8E720128DF80000E0B28DF801005F
:104480009DF8010028444E4949684989884202DD67
:104490004FF0FF30E7E74A4A1268117E484A5268F7
:1044A00010786B460222FDF782F910B14FF0FF3011
:1044B000D9E7434A1268517D414A52681078334621
:1044C000EAB2FDF774F910B14FF0FF30CBE70020EE
:1044D000C9E7F8B504460D46164616B94FF0FF3049
:1044E000F8BD3748807A10B94FF0FF30F8E7201256
:1044F0008DF80000E0B28DF801009DF8010028441D
:104500002F4949684989884202DD4FF0FF30E7E7CB
:104510002B4A1268117E2A4A526810786B46022292
:10452000FDF745F910B14FF0FF30D9E7244A126882
:10453000517D234A526810783346EAB2FDF79CF960
:1045400010B14FF0FF30CBE70020C9E72DE9F04371
:1045500085B005460E4690469946194890F82500C4
:1045600020B14FF0FF3005B0BDE8F08316B94FF031
:10457000FF30F8E7002427E0281B102801DD102079
:1045800000E0281B87B2321939462046FFF764FF46
:1045900010B14FF0FF30E6E701AA39462046FFF799
:1045A00098FF10B14FF0FF30DDE730193A4601A90E
:1045B00002F024F930B16FF00100D4E73091000827
:1045C000C0000020E01984B2AC42D5DB4FEA2820BD
:1045D0008DF8000008F0FF008DF80100924A126883
:1045E000917E914A526810786B460222FDF7DFF8FF
:1045F00010B14FF0FF30B6E701218B4880F825104D
:10460000A0F826900020AEE70146874890F82400E5
:1046100008700020704702464FF0FF307047014697
:104620004FF0FF307047F8B505460F461446F4B317
:10463000B5F5FF5F01DDFF2605E0202D01DA01263B
:1046400001E0C5F3471607B90127282C02DD4FF01A
:10465000FF30F8BD7448407D28BB734890F82400B3
:1046600038B10020FFF728FE01216F4880F82010A4
:1046700003E000216C4880F820106B481630FFF7EB
:1046800042F869481830FFF75EF867481A30FFF7BC
:104690007EF865481C30FFF79FF86348817A817780
:1046A0001F30FFF7F3F80020FEF762F900E07AE030
:1046B0000020FEF775FC00208DF800005A4A1268B1
:1046C0009178594A526810786B460122FDF76FF8CD
:1046D00010B14FF0FF30BCE740208DF80000524A87
:1046E0001268D17B504A526810786B460122FDF760
:1046F0005EF800B164E08DF800608DF801704A4A00
:104700001268117A484A526810786B460222FDF707
:104710004EF800B154E00520FBF7F1FD4248407A25
:10472000072101EBC000C0B28DF800003E4A1268BC
:10473000D1793D4A526810786B460122FDF737F86F
:1047400000B13DE020208DF80000012C03D10020B5
:104750008DF801000EE0052C03DC01208DF801002E
:1047600008E0142C03DC02208DF8010002E0032095
:104770008DF801009DF80100072101EB8010C0B207
:104780008DF80100284A1268917C274A52681078F7
:104790006B460222FDF70BF800B111E0012122481F
:1047A0004175002055E7204A1632002103E0505C95
:1047B00000B105E0491C0C29F9D34FF0FF3048E760
:1047C000FF2019490872FF2117484172C1724FF644
:1047D000FF71C181FF2181720174012101730146C2
:1047E000887FFEF782F91049C88AFEF7D3FC0E498C
:1047F000087EFEF78EFC0C49488BFEF792FB0A49B7
:10480000888BFEF73AFC0849C87FFEF755FB06483F
:1048100090F8200010B10120FFF74EFD0021024862
:104820004175002015E70000C000002010B5C82326
:104830004FF48062FB4940F6F630FFF787FE10BD6B
:1048400010B586B00446F8A000680390F7A0006891
:104850000290F7A000680190F6A00068009004F0B4
:10486000030003A9085C8DF8140003A8C4F3C10178
:10487000405C8DF8150003A8C4F38111405C8DF8ED
:10488000160004F0030002A9085C8DF8100002A8CD
:10489000C4F3C101405C8DF8110002A8C4F381117A
:1048A000405C8DF8120005AA032140F22640FFF774
:1048B000D3FD18B14FF0FF3006B010BD04AA03219C
:1048C00040F22A40FFF7C8FD10B14FF0FF30F3E788
:1048D000019805900098049014F0040F0BD09DF8F7
:1048E000140040F001008DF814009DF8100040F015
:1048F00001008DF8100014F0200F0BD09DF815006A
:1049000040F001008DF815009DF8110040F0010005
:104910008DF8110014F4807F0BD09DF8160040F044
:1049200001008DF816009DF8120040F001008DF88E
:10493000120005AA03214FF48860FFF78DFD10B126
:104940004FF0FF30B8E704AA032140F23140FFF7EF
:1049500083FD10B14FF0FF30AEE7B748048100206F
:10496000AAE72DE9FF470446B348008900F0030099
:1049700054F820000190B048008910F0040F02D0D4
:10498000019840420190AC480089C0F3C10054F83E
:1049900020000290A848008910F0200F02D0029851
:1049A00040420290A4480089C0F3811054F82000CE
:1049B0000390A148008910F4807F02D00398404200
:1049C00003909E49019880FB015A1E2228465146B9
:1049D00001F060FE01909949029880FB01671E2258
:1049E0003046394601F056FE02909449039880FB08
:1049F00001891E224046494601F04CFE0390019871
:104A0000000E8DF800000198000C8DF8010001984F
:104A1000000A8DF802000198C0B28DF803006A46C2
:104A200004214FF47470FFF717FD20B14FF0FF30F1
:104A300004B0BDE8F0870298000E8DF800000298DF
:104A4000000C8DF801000298000A8DF8020002980F
:104A5000C0B28DF803006A4604214FF47570FFF769
:104A6000FBFC10B14FF0FF30E2E70398000E8DF829
:104A700000000398000C8DF801000398000A8DF8DF
:104A800002000398C0B28DF803006A4604214FF477
:104A90007670FFF7E1FCCBE72DE9F04F8BB00746CE
:104AA00001A8FEF7CCFEBDF8046000200F2208909C
:104AB0003046089901F0DBFD04460D465E4800894A
:104AC00000F0030057F8200005905B48008910F0C3
:104AD000040F02D005984042059057480089C0F362
:104AE000C10057F8200006905348008910F0200FAD
:104AF00002D00698404206904F480089C0F38110CA
:104B000057F8200007904C48008910F4807F02D0AD
:104B10000798404207900598C117A0FB048201FB4B
:104B2000042100FB05101E220A9040460A9901F05C
:104B3000B1FD05900698C117A0FB049201FB04216A
:104B400000FB051A1E224846514601F0A3FD0690BF
:104B50000798C117A0FB04B201FB042100FB05105C
:104B60001E2209905846099901F094FD0790059876
:104B7000000E8DF808000598000C8DF809000598C6
:104B8000000A8DF80A000598C0B28DF80B0006984F
:104B9000000E8DF80C000698000C8DF80D0006989C
:104BA000000A8DF80E000698C0B28DF80F00079825
:104BB000000E8DF810000798000C8DF81100079872
:104BC000000A8DF812000798C0B28DF8130002AAEF
:104BD0000C214FF42570FFF73FFC0BB0BDE8F08FC0
:104BE00030B585B0044616A207CA02AB07C3C82C6D
:104BF00003DD4FF0FF3005B030BDC82090FBF4F06E
:104C0000401E85B2280A8DF80000E8B28DF8010038
:104C10006A46022140F21620FFF71EFCB0B14FF0A9
:104C2000FF30E8E7A69100084CCD6C000CC92C00C1
:104C300036567600264666008005002009E3CA0243
:104C4000FEF2ABC4AAF1DFDFBBAFDFDF02AA0C21AB
:104C500040F6C120FFF700FC10B14FF0FF30CAE76B
:104C6000FE4884810020C6E70146FC488089088010
:104C7000002070472DE9FC4706460F4616F0070F47
:104C800002D0B7F5C86F03DD4FF0FF30BDE8FC87F9
:104C9000384603F0C1FA8146F14903F073F98046C2
:104CA0006846FEF750FD9DF80000022806D0042853
:104CB00016D0082826D0102848D135E04FF08D4175
:104CC000404603F0F1FA814603F06EFA84B2E549FA
:104CD000404603F0E9FA814603F066FA85B238E00F
:104CE0004FF08C41404603F0DFFA814603F05CFA56
:104CF00084B2DD49404603F0D7FA814603F054FA06
:104D000085B226E04FF08B41404603F0CDFA814654
:104D100003F04AFA84B2D549404603F0C5FA814609
:104D200003F042FA85B214E04FF08A41404603F0A6
:104D3000BBFA814603F038FA84B2CD49404603F00D
:104D4000B3FA814603F030FA85B202E04FF0FF304B
:104D50009CE700BF20128DF80400E0B28DF805003A
:104D600028128DF80600E8B28DF8070016F0010F42
:104D700014D001AA02214FF4EA70FFF76DFB10B1C5
:104D80004FF0FF3082E70DF1060202214FF49270DE
:104D9000FFF762FB10B14FF0FF3077E716F0020F1C
:104DA00014D001AA02214FF4EC70FFF755FB10B1AB
:104DB0004FF0FF306AE70DF1060202214FF49470C4
:104DC000FFF74AFB10B14FF0FF305FE716F0040F1A
:104DD00014D001AA02214FF4EE70FFF73DFB10B191
:104DE0004FF0FF3052E70DF1060202214FF49670AA
:104DF000FFF732FB10B14FF0FF3047E7002045E7E7
:104E000038B504460020009014F0010F04D09DF83E
:104E1000000040F03000009014F0020F04D09DF824
:104E2000000040F00C00009014F0040F04D09DF836
:104E3000000040F0030000906A4601214FF4A47086
:104E4000FFF70AFB38BD38B50446012C01DA01240E
:104E500002E0042C00DD0424601EC0B200906A460B
:104E6000012140F24F10FFF7F7FA38BD38B504467C
:104E7000052094FBF0F085B228128DF80000E8B20E
:104E80008DF801006A4602214FF4EF70FFF7E4FA53
:104E900038BD38B50446052094FBF0F085B22812E1
:104EA0008DF80000E8B28DF801006A4602214FF447
:104EB000ED70FFF7D1FA38BDF8B505460E464FF450
:104EC0007A7095FBF0F000FB06F4200E8DF80000E0
:104ED000200C8DF80100200A8DF80200E0B28DF858
:104EE00003006A4604214FF4AE70FFF7B5FAF8BD2F
:104EF00038B50446052094FBF0F084B220128DF8FA
:104F00000000E0B28DF801006A4602214FF4AD7056
:104F1000FFF7A2FA38BD38B50446052094FBF0F03F
:104F200084B220128DF80000E0B28DF801006A46CC
:104F300002214FF4AC70FFF78FFA38BD38B5044644
:104F400014B94FF0FF3038BD6A4604214FF4587051
:104F5000FFF7BFFA10B14FF0FF30F4E79DF8000003
:104F600000069DF8011040EA01409DF8021040EA59
:104F700001209DF80310084320600020E3E738B5C6
:104F80000446200E8DF80000200C8DF80100200A48
:104F90008DF80200E0B28DF803006A4604214FF458
:104FA0005870FFF759FA38BD38B5044614B94FF0B8
:104FB000FF3038BD6A4604214FF47170FFF789FA5B
:104FC00010B14FF0FF30F4E79DF8000000069DF8A7
:104FD000011040EA01409DF8021040EA01209DF8CE
:104FE0000310084300EB8000800020600020E0E711
:104FF00038B504461420B4FBF0F4200E8DF8000000
:10500000200C8DF80100200A8DF80200E0B28DF826
:1050100003006A4604214FF47170FFF71DFA38BD92
:1050200038B5044664B120208DF8000028208DF8A2
:10503000010030208DF8020038208DF8030004E0D4
:10504000A3220421684601F000FC6A46042140F6D0
:105050009E20FFF701FAFDF752FE38BD80050020C3
:1050600000004843000040460000C04500004045A5
:105070000000C04438B5044664B1C0208DF800007B
:10508000C2208DF80100C4208DF80200C6208DF8E2
:10509000030004E08B220421684601F0D6FB6A4637
:1050A000042140F69820FFF7D7F9FDF728FE38BD18
:1050B0003EB504466CB1FCA1D1E900208968CDE978
:1050C000002002916A4609214FF49760FFF7C4F966
:1050D0003EBDF8A2D2E900109268CDE9010200912C
:1050E0006A4609214FF49760FFF7B6F9F0E73EB53D
:1050F000044602208DF80000CA208DF80100E3204C
:105100008DF8020009208DF803006A46042168200A
:10511000FFF7A2F9A3208DF8000014F0400F09D08A
:10512000C0208DF80100C8208DF80200C2208DF843
:10513000030006E0A3208DF801008DF802008DF831
:10514000030014F4C07F09D0C4208DF80400CC20E3
:105150008DF80500C6208DF8060006E0A3208DF826
:1051600004008DF805008DF80600A3208DF80700D7
:105170008DF808008DF809006A460A2140F6A7203C
:10518000FFF76AF914F0030F03D020208DF8000018
:1051900002E0D8208DF800006A46012140F6B620D2
:1051A000FFF75AF914F0200F03D00120FFF780FF1A
:1051B00002E00020FFF77CFF14F4C07F21D014F43C
:1051C000807F0CD0B2208DF800008B208DF801007C
:1051D000B6208DF802009B208DF803000BE0B02074
:1051E0008DF8000080208DF80100B4208DF80200B9
:1051F00090208DF803006A46042140F6A220FFF7B4
:105200002BF914F0010F24D0F8208DF800006A4625
:1052100001214FF40B60FFF71FF9FA210720FFF778
:1052200029FD0720FFF7ECFD0120FFF70CFE6420AD
:10523000FFF71CFE4FF4FA70FFF72BFEC821A048C1
:10524000FFF73AFE2820FFF753FE0A20FFF763FE20
:1052500008E0D8208DF800006A4601214FF40B6069
:10526000FFF7FAF814F0020F03D0D9208DF80000F0
:1052700002E0D8208DF800006A46012140F23D701E
:10528000FFF7EAF814F0040F03D00120FFF7F2FE55
:1052900002E00020FFF7EEFE14F0100F03D0012013
:1052A000FFF7BEFE02E00020FFF7BAFE44F0080060
:1052B00084494881FDF723FD00208249887314F05A
:1052C000400F03D00846807B801D887314F4C07F94
:1052D00004D07C48807B801D7A49887314F0140FB9
:1052E00004D07848807B10307649887314F0030F1F
:1052F00004D07448807B001D7249887300203EBD35
:105300000146704840890880002070472DE9F0412F
:105310000446E07800F0C006E07800F03F056078D1
:1053200010F0010F13D0EF102846E91705EB51716B
:10533000C910A5EBC101491C01F0FF0861480068D4
:1053400020B16048414602683846904700BF607807
:1053500010F0080F06D05B48406818B1B011594AE8
:10536000516888470020BDE8F08110B586B004463A
:1053700055A207CA03AB07C356A207CA8DE80700A8
:10538000012C09D0022C0ED103AA0B2140F6822059
:10539000FFF762F806B010BD6A460B2140F6822086
:1053A000FFF75AF8F6E74FF0FF30F3E72DE9F04F3B
:1053B0008DB00746884615469946DDE9166B0024F0
:1053C000002030803F49887B5A4605A9FEF796FBAE
:1053D00018B1601E0DB0BDE8F08F3A48408910F05A
:1053E000140F7DD09DF8140000069DF8151040EABA
:1053F00001409DF8161040EA01209DF8171008435F
:1054000028609DF8180000069DF8191040EA014038
:105410009DF81A1040EA01209DF81B1008436860AF
:105420009DF81C0000069DF81D1040EA01409DF803
:105430001E1040EA01209DF81F100843A8609DF847
:10544000200000069DF8211040EA01409DF822103E
:1054500040EA01209DF823100843E86004F11000A1
:10546000C4B2286800140190686800140290A8680B
:1054700000140390E86800140490019840430299D6
:1054800001FB0100039901FB0100049901FB010AE2
:10549000BAF1706F02DBBAF1885F22DDFDF72FFCF5
:1054A00000203080401E95E7B8AAB38DB4980D3522
:1054B0005D000000B8AAAAAAB088C3C5C700000052
:1054C00009E3CA0280050020D8B1B9F38BA391B6D5
:1054D00009B4D900DAB1B9F38BA391B6DAB4DA0022
:1054E00005E0B6F9000040F48070308000BF344819
:1054F000408910F0400F24D005A9601C085C095DAC
:1055000040EA012000B2A8F8000005A9E01C095CEF
:1055100005AAA01C105C41EA002000B2A8F8020015
:1055200005A9601D095C201D105C41EA002000B245
:10553000A8F80400A01DC4B2B6F9000040F00800AD
:1055400030801F48408910F4C07F21D005A9601C1D
:10555000085C095D40EA012000B2388005A9E01C22
:10556000095C05AAA01C105C41EA002000B278800A
:1055700005A9601D095C201D105C41EA002000B2F5
:10558000B880A01DC4B2B6F9000040F070003080B1
:105590000B48408910F0030F03D005A90819FFF745
:1055A000B5FE4846FDF70BFF002013E7014604480F
:1055B00001600020704701460148416000207047AB
:1055C000800500202DE9F04105460C46AA480168F7
:1055D000204602F077FF0746A8480168384602F0E7
:1055E00063FE0646A6480168304602F05DFCA44909
:1055F0000860A4484168A448006802F063FF0646BA
:10560000A0488168304602F05DFFA04908609D48CF
:10561000C06880F0004048609A48C06880F0004050
:1056200088609B480068C86008689449096802F06F
:105630003BFE064693480168304602F035FC91492E
:105640000860924948688D49096802F02DFE0646B7
:105650008C484168304602F027FC8A4948608B49F3
:1056600088688649096802F01FFE064685488168F9
:10567000304602F019FC834988608449C8687F4934
:10568000096802F011FE06467E48C168304602F005
:105690000BFC7C49C8607A480168284602F012FF7A
:1056A0007C4908607C48007802F0B6FD06467548E3
:1056B0000168304602F0F8FD7849086076480078C5
:1056C00002F0AAFD06466F488168304602F0ECFD04
:1056D000734908607048007802F09EFD07466F48E5
:1056E0000168384602F0E0FD06466E480168304623
:1056F00002F0DAFB6C4908600846016867480068F8
:1057000002F040FC69490860674801686448006825
:1057100002F038FC66490860604800686549086026
:105720005D48007802F078FD0646564841683046EC
:1057300002F0BAFD604908605E4801685B48006895
:1057400002F0B2FD06464F480168304602F0B0FE56
:105750004C490860584801685448006802F0A4FDAC
:10576000064648484168304602F0A2FE4549486076
:10577000504801684E48006802F096FD06464148D0
:105780008168304602F094FE3E4988604A480168CC
:105790004748006802F088FD06463A48C16830462E
:1057A00002F086FE3749C8603A4801683F48006801
:1057B00002F07AFD064632480168304602F074FB7A
:1057C0002F490860334801683948006802F06CFDD1
:1057D000064629480168304602F066FB2649086003
:1057E00008460168204602F06DFE34490860BDE8B5
:1057F000F0812DE9F04F8BB083468A46504602F087
:1058000027FB80462E4A2F4B02F048F8CDE90201D3
:105810001B48006802F01CFBCDE90001DDE9022312
:1058200001F094FD04460D46274801684FF07E5074
:1058300002F048FE804602F00BFB064622462B464D
:1058400002F02CF8CDE906011F480168584602F025
:105850002BFD044602F0FCFACDE90401DDE9062344
:1058600001F074FDCDE9080101F03EFD0449086036
:105870000BB0BDE8F08F00001C010020FC000020F0
:105880001401002004010020F000002090050020F9
:10589000F40000202001002000010020240100204D
:1058A00028010020F80000202C01002030010020F9
:1058B00034010020380100203C01002018010020A4
:1058C0007B14AE47E17A743FEC000020014691F969
:1058D0000020002A01DD00201EE091F90020002AAE
:1058E00001DA042018E091F90120002A01DD0120ED
:1058F00012E091F90120002A01DA05200CE091F96B
:105900000220002A01DD022006E091F90220002A8F
:1059100001DA062000E00720704770B505462846EA
:10592000FFF7D4FF0446E81CFFF7D0FF44EAC000AD
:1059300084B2A81DFFF7CAFF44EA801084B2204653
:1059400070BD70B588B002A905A8FEF7FAFC044640
:10595000072C3FD101A8FDF755FF059802F044FC44
:105960000646019902F0A0FC054602F001FC0590F4
:10597000069802F039FC0646019902F095FC0546AE
:1059800002F0F6FB0690079802F02EFC06460199FD
:1059900002F08AFC054602F0EBFB079005A8FEF733
:1059A000E0FF6846FDF74BFFBDF800100298484342
:1059B0000290BDF80010039848430390BDF8001012
:1059C00004984843049002A8FFF766F8FFA000F08F
:1059D00099FE00BF08B070BD2DE9F04304460D46A6
:1059E000DDE907670021012041E0DFF804C43CF84D
:1059F0001080A0F1010CDFF8F89329F81C8009F160
:105A0000160C3CF81090A0F1010CDFF8E48308F1CB
:105A1000160828F81C9008F1160C3CF81090A0F11C
:105A2000010C08F1160828F81C9008F1160C3CF837
:105A30001090A0F1010C08F1160828F81C9008F14C
:105A4000160C3CF81090A0F1010C08F1160828F88B
:105A50001C9008F1160C3CF81090A0F1010C08F114
:105A6000160828F81C9000F1010C0CF0FF000A2821
:105A7000BBDBDFF87CC3ACF81240ACF82850ACF8C4
:105A80003E20ACF85430ACF86A60ACF8807000216D
:105A9000002008E0DFF858C33CF910C0614400F171
:105AA000010C0CF0FF000A28F4DB4FF00A0C91FB0C
:105AB000FCFC0FFA8CFCDFF83883A8F814C0002136
:105AC00000200AE0DFF828C30CF1160C3CF910C0E6
:105AD000614400F1010C0CF0FF000A28F2DB4FF0EA
